{
	"second.sol": {
		"My2Contract": {
			"abi": [
				{
					"inputs": [],
					"stateMutability": "nonpayable",
					"type": "constructor"
				},
				{
					"inputs": [],
					"name": "state",
					"outputs": [
						{
							"internalType": "enum My2Contract.State",
							"name": "",
							"type": "uint8"
						}
					],
					"stateMutability": "view",
					"type": "function"
				}
			],
			"devdoc": {
				"custom:dev-run-script": "./scripts/deploy_with_ethers.ts",
				"details": "Store & retrieve value in a variable",
				"kind": "dev",
				"methods": {},
				"title": "Storage",
				"version": 1
			},
			"evm": {
				"assembly": "    /* \"second.sol\":209:366  contract My2Contract... */\n  mstore(0x40, 0x80)\n    /* \"second.sol\":306:360  constructor (){... */\n  callvalue\n  dup1\n  iszero\n  tag_1\n  jumpi\n  0x00\n  dup1\n  revert\ntag_1:\n  pop\n    /* \"second.sol\":339:352  State.Waiting */\n  0x00\n    /* \"second.sol\":331:336  state */\n  dup1\n  0x00\n    /* \"second.sol\":331:352  state = State.Waiting */\n  0x0100\n  exp\n  dup2\n  sload\n  dup2\n  0xff\n  mul\n  not\n  and\n  swap1\n  dup4\n  0x02\n  dup2\n  gt\n  iszero\n  tag_4\n  jumpi\n  tag_5\n  tag_6\n  jump\t// in\ntag_5:\ntag_4:\n  mul\n  or\n  swap1\n  sstore\n  pop\n    /* \"second.sol\":209:366  contract My2Contract... */\n  jump(tag_7)\n    /* \"#utility.yul\":7:187   */\ntag_6:\n    /* \"#utility.yul\":55:132   */\n  0x4e487b7100000000000000000000000000000000000000000000000000000000\n    /* \"#utility.yul\":52:53   */\n  0x00\n    /* \"#utility.yul\":45:133   */\n  mstore\n    /* \"#utility.yul\":152:156   */\n  0x21\n    /* \"#utility.yul\":149:150   */\n  0x04\n    /* \"#utility.yul\":142:157   */\n  mstore\n    /* \"#utility.yul\":176:180   */\n  0x24\n    /* \"#utility.yul\":173:174   */\n  0x00\n    /* \"#utility.yul\":166:181   */\n  revert\n    /* \"second.sol\":209:366  contract My2Contract... */\ntag_7:\n  dataSize(sub_0)\n  dup1\n  dataOffset(sub_0)\n  0x00\n  codecopy\n  0x00\n  return\nstop\n\nsub_0: assembly {\n        /* \"second.sol\":209:366  contract My2Contract... */\n      mstore(0x40, 0x80)\n      callvalue\n      dup1\n      iszero\n      tag_1\n      jumpi\n      0x00\n      dup1\n      revert\n    tag_1:\n      pop\n      jumpi(tag_2, lt(calldatasize, 0x04))\n      shr(0xe0, calldataload(0x00))\n      dup1\n      0xc19d93fb\n      eq\n      tag_3\n      jumpi\n    tag_2:\n      0x00\n      dup1\n      revert\n        /* \"second.sol\":279:297  State public state */\n    tag_3:\n      tag_4\n      tag_5\n      jump\t// in\n    tag_4:\n      mload(0x40)\n      tag_6\n      swap2\n      swap1\n      tag_7\n      jump\t// in\n    tag_6:\n      mload(0x40)\n      dup1\n      swap2\n      sub\n      swap1\n      return\n    tag_5:\n      0x00\n      dup1\n      sload\n      swap1\n      0x0100\n      exp\n      swap1\n      div\n      0xff\n      and\n      dup2\n      jump\t// out\n        /* \"#utility.yul\":7:187   */\n    tag_8:\n        /* \"#utility.yul\":55:132   */\n      0x4e487b7100000000000000000000000000000000000000000000000000000000\n        /* \"#utility.yul\":52:53   */\n      0x00\n        /* \"#utility.yul\":45:133   */\n      mstore\n        /* \"#utility.yul\":152:156   */\n      0x21\n        /* \"#utility.yul\":149:150   */\n      0x04\n        /* \"#utility.yul\":142:157   */\n      mstore\n        /* \"#utility.yul\":176:180   */\n      0x24\n        /* \"#utility.yul\":173:174   */\n      0x00\n        /* \"#utility.yul\":166:181   */\n      revert\n        /* \"#utility.yul\":193:305   */\n    tag_9:\n        /* \"#utility.yul\":273:274   */\n      0x03\n        /* \"#utility.yul\":266:271   */\n      dup2\n        /* \"#utility.yul\":263:275   */\n      lt\n        /* \"#utility.yul\":253:299   */\n      tag_16\n      jumpi\n        /* \"#utility.yul\":279:297   */\n      tag_17\n      tag_8\n      jump\t// in\n    tag_17:\n        /* \"#utility.yul\":253:299   */\n    tag_16:\n        /* \"#utility.yul\":193:305   */\n      pop\n      jump\t// out\n        /* \"#utility.yul\":311:436   */\n    tag_10:\n        /* \"#utility.yul\":355:362   */\n      0x00\n        /* \"#utility.yul\":384:389   */\n      dup2\n        /* \"#utility.yul\":373:389   */\n      swap1\n      pop\n        /* \"#utility.yul\":390:430   */\n      tag_19\n        /* \"#utility.yul\":424:429   */\n      dup3\n        /* \"#utility.yul\":390:430   */\n      tag_9\n      jump\t// in\n    tag_19:\n        /* \"#utility.yul\":311:436   */\n      swap2\n      swap1\n      pop\n      jump\t// out\n        /* \"#utility.yul\":442:567   */\n    tag_11:\n        /* \"#utility.yul\":497:506   */\n      0x00\n        /* \"#utility.yul\":530:561   */\n      tag_21\n        /* \"#utility.yul\":555:560   */\n      dup3\n        /* \"#utility.yul\":530:561   */\n      tag_10\n      jump\t// in\n    tag_21:\n        /* \"#utility.yul\":517:561   */\n      swap1\n      pop\n        /* \"#utility.yul\":442:567   */\n      swap2\n      swap1\n      pop\n      jump\t// out\n        /* \"#utility.yul\":573:714   */\n    tag_12:\n        /* \"#utility.yul\":665:707   */\n      tag_23\n        /* \"#utility.yul\":701:706   */\n      dup2\n        /* \"#utility.yul\":665:707   */\n      tag_11\n      jump\t// in\n    tag_23:\n        /* \"#utility.yul\":660:663   */\n      dup3\n        /* \"#utility.yul\":653:708   */\n      mstore\n        /* \"#utility.yul\":573:714   */\n      pop\n      pop\n      jump\t// out\n        /* \"#utility.yul\":720:952   */\n    tag_7:\n        /* \"#utility.yul\":818:822   */\n      0x00\n        /* \"#utility.yul\":856:858   */\n      0x20\n        /* \"#utility.yul\":845:854   */\n      dup3\n        /* \"#utility.yul\":841:859   */\n      add\n        /* \"#utility.yul\":833:859   */\n      swap1\n      pop\n        /* \"#utility.yul\":869:945   */\n      tag_25\n        /* \"#utility.yul\":942:943   */\n      0x00\n        /* \"#utility.yul\":931:940   */\n      dup4\n        /* \"#utility.yul\":927:944   */\n      add\n        /* \"#utility.yul\":918:924   */\n      dup5\n        /* \"#utility.yul\":869:945   */\n      tag_12\n      jump\t// in\n    tag_25:\n        /* \"#utility.yul\":720:952   */\n      swap3\n      swap2\n      pop\n      pop\n      jump\t// out\n\n    auxdata: 0xa26469706673582212204d7a5c4e61b57ff1a56ca0ba5e80b322653e8063fb18b504a614ff1f406187fe64736f6c63430008160033\n}\n",
				"bytecode": {
					"linkReferences": {},
					"object": "608060405234801561000f575f80fd5b505f805f6101000a81548160ff021916908360028111156100335761003261003d565b5b021790555061006a565b7f4e487b71000000000000000000000000000000000000000000000000000000005f52602160045260245ffd5b61010b806100775f395ff3fe6080604052348015600e575f80fd5b50600436106026575f3560e01c8063c19d93fb14602a575b5f80fd5b60306044565b604051603b919060be565b60405180910390f35b5f8054906101000a900460ff1681565b7f4e487b71000000000000000000000000000000000000000000000000000000005f52602160045260245ffd5b60038110608f57608e6054565b5b50565b5f819050609d826081565b919050565b5f60aa826092565b9050919050565b60b88160a2565b82525050565b5f60208201905060cf5f83018460b1565b9291505056fea26469706673582212204d7a5c4e61b57ff1a56ca0ba5e80b322653e8063fb18b504a614ff1f406187fe64736f6c63430008160033",
					"opcodes": "PUSH1 0x80 PUSH1 0x40 MSTORE CALLVALUE DUP1 ISZERO PUSH2 0xF JUMPI PUSH0 DUP1 REVERT JUMPDEST POP PUSH0 DUP1 PUSH0 PUSH2 0x100 EXP DUP2 SLOAD DUP2 PUSH1 0xFF MUL NOT AND SWAP1 DUP4 PUSH1 0x2 DUP2 GT ISZERO PUSH2 0x33 JUMPI PUSH2 0x32 PUSH2 0x3D JUMP JUMPDEST JUMPDEST MUL OR SWAP1 SSTORE POP PUSH2 0x6A JUMP JUMPDEST PUSH32 0x4E487B7100000000000000000000000000000000000000000000000000000000 PUSH0 MSTORE PUSH1 0x21 PUSH1 0x4 MSTORE PUSH1 0x24 PUSH0 REVERT JUMPDEST PUSH2 0x10B DUP1 PUSH2 0x77 PUSH0 CODECOPY PUSH0 RETURN INVALID PUSH1 0x80 PUSH1 0x40 MSTORE CALLVALUE DUP1 ISZERO PUSH1 0xE JUMPI PUSH0 DUP1 REVERT JUMPDEST POP PUSH1 0x4 CALLDATASIZE LT PUSH1 0x26 JUMPI PUSH0 CALLDATALOAD PUSH1 0xE0 SHR DUP1 PUSH4 0xC19D93FB EQ PUSH1 0x2A JUMPI JUMPDEST PUSH0 DUP1 REVERT JUMPDEST PUSH1 0x30 PUSH1 0x44 JUMP JUMPDEST PUSH1 0x40 MLOAD PUSH1 0x3B SWAP2 SWAP1 PUSH1 0xBE JUMP JUMPDEST PUSH1 0x40 MLOAD DUP1 SWAP2 SUB SWAP1 RETURN JUMPDEST PUSH0 DUP1 SLOAD SWAP1 PUSH2 0x100 EXP SWAP1 DIV PUSH1 0xFF AND DUP2 JUMP JUMPDEST PUSH32 0x4E487B7100000000000000000000000000000000000000000000000000000000 PUSH0 MSTORE PUSH1 0x21 PUSH1 0x4 MSTORE PUSH1 0x24 PUSH0 REVERT JUMPDEST PUSH1 0x3 DUP2 LT PUSH1 0x8F JUMPI PUSH1 0x8E PUSH1 0x54 JUMP JUMPDEST JUMPDEST POP JUMP JUMPDEST PUSH0 DUP2 SWAP1 POP PUSH1 0x9D DUP3 PUSH1 0x81 JUMP JUMPDEST SWAP2 SWAP1 POP JUMP JUMPDEST PUSH0 PUSH1 0xAA DUP3 PUSH1 0x92 JUMP JUMPDEST SWAP1 POP SWAP2 SWAP1 POP JUMP JUMPDEST PUSH1 0xB8 DUP2 PUSH1 0xA2 JUMP JUMPDEST DUP3 MSTORE POP POP JUMP JUMPDEST PUSH0 PUSH1 0x20 DUP3 ADD SWAP1 POP PUSH1 0xCF PUSH0 DUP4 ADD DUP5 PUSH1 0xB1 JUMP JUMPDEST SWAP3 SWAP2 POP POP JUMP INVALID LOG2 PUSH5 0x6970667358 0x22 SLT KECCAK256 0x4D PUSH27 0x5C4E61B57FF1A56CA0BA5E80B322653E8063FB18B504A614FF1F40 PUSH2 0x87FE PUSH5 0x736F6C6343 STOP ADDMOD AND STOP CALLER "
				},
				"gasEstimates": {
					"creation": {
						"codeDepositCost": "53400",
						"executionCost": "24400",
						"totalCost": "77800"
					},
					"external": {
						"state()": "2529"
					}
				},
				"methodIdentifiers": {
					"state()": "c19d93fb"
				}
			},
			"storageLayout": {
				"storage": [
					{
						"astId": 9,
						"contract": "second.sol:My2Contract",
						"label": "state",
						"offset": 0,
						"slot": "0",
						"type": "t_enum(State)6"
					}
				],
				"types": {
					"t_enum(State)6": {
						"encoding": "inplace",
						"label": "enum My2Contract.State",
						"numberOfBytes": "1"
					}
				}
			},
			"userdoc": {
				"kind": "user",
				"methods": {},
				"version": 1
			}
		}
	}
}