{
	"second.sol": {
		"My2Contract": {
			"abi": [
				{
					"inputs": [],
					"stateMutability": "nonpayable",
					"type": "constructor"
				},
				{
					"inputs": [],
					"name": "activate",
					"outputs": [],
					"stateMutability": "nonpayable",
					"type": "function"
				},
				{
					"inputs": [],
					"name": "isActive",
					"outputs": [
						{
							"internalType": "bool",
							"name": "",
							"type": "bool"
						}
					],
					"stateMutability": "view",
					"type": "function"
				},
				{
					"inputs": [],
					"name": "state",
					"outputs": [
						{
							"internalType": "enum My2Contract.State",
							"name": "",
							"type": "uint8"
						}
					],
					"stateMutability": "view",
					"type": "function"
				}
			],
			"devdoc": {
				"custom:dev-run-script": "./scripts/deploy_with_ethers.ts",
				"details": "Store & retrieve value in a variable",
				"kind": "dev",
				"methods": {},
				"title": "Storage",
				"version": 1
			},
			"evm": {
				"assembly": "    /* \"second.sol\":209:546  contract My2Contract... */\n  mstore(0x40, 0x80)\n    /* \"second.sol\":306:360  constructor (){... */\n  callvalue\n  dup1\n  iszero\n  tag_1\n  jumpi\n  0x00\n  dup1\n  revert\ntag_1:\n  pop\n    /* \"second.sol\":339:352  State.Waiting */\n  0x00\n    /* \"second.sol\":331:336  state */\n  dup1\n  0x00\n    /* \"second.sol\":331:352  state = State.Waiting */\n  0x0100\n  exp\n  dup2\n  sload\n  dup2\n  0xff\n  mul\n  not\n  and\n  swap1\n  dup4\n  0x02\n  dup2\n  gt\n  iszero\n  tag_4\n  jumpi\n  tag_5\n  tag_6\n  jump\t// in\ntag_5:\ntag_4:\n  mul\n  or\n  swap1\n  sstore\n  pop\n    /* \"second.sol\":209:546  contract My2Contract... */\n  jump(tag_7)\n    /* \"#utility.yul\":7:187   */\ntag_6:\n    /* \"#utility.yul\":55:132   */\n  0x4e487b7100000000000000000000000000000000000000000000000000000000\n    /* \"#utility.yul\":52:53   */\n  0x00\n    /* \"#utility.yul\":45:133   */\n  mstore\n    /* \"#utility.yul\":152:156   */\n  0x21\n    /* \"#utility.yul\":149:150   */\n  0x04\n    /* \"#utility.yul\":142:157   */\n  mstore\n    /* \"#utility.yul\":176:180   */\n  0x24\n    /* \"#utility.yul\":173:174   */\n  0x00\n    /* \"#utility.yul\":166:181   */\n  revert\n    /* \"second.sol\":209:546  contract My2Contract... */\ntag_7:\n  dataSize(sub_0)\n  dup1\n  dataOffset(sub_0)\n  0x00\n  codecopy\n  0x00\n  return\nstop\n\nsub_0: assembly {\n        /* \"second.sol\":209:546  contract My2Contract... */\n      mstore(0x40, 0x80)\n      callvalue\n      dup1\n      iszero\n      tag_1\n      jumpi\n      0x00\n      dup1\n      revert\n    tag_1:\n      pop\n      jumpi(tag_2, lt(calldatasize, 0x04))\n      shr(0xe0, calldataload(0x00))\n      dup1\n      0x0f15f4c0\n      eq\n      tag_3\n      jumpi\n      dup1\n      0x22f3e2d4\n      eq\n      tag_4\n      jumpi\n      dup1\n      0xc19d93fb\n      eq\n      tag_5\n      jumpi\n    tag_2:\n      0x00\n      dup1\n      revert\n        /* \"second.sol\":368:434  function activate() public {... */\n    tag_3:\n      tag_6\n      tag_7\n      jump\t// in\n    tag_6:\n      stop\n        /* \"second.sol\":442:540  function isActive() public view returns(bool)... */\n    tag_4:\n      tag_8\n      tag_9\n      jump\t// in\n    tag_8:\n      mload(0x40)\n      tag_10\n      swap2\n      swap1\n      tag_11\n      jump\t// in\n    tag_10:\n      mload(0x40)\n      dup1\n      swap2\n      sub\n      swap1\n      return\n        /* \"second.sol\":279:297  State public state */\n    tag_5:\n      tag_12\n      tag_13\n      jump\t// in\n    tag_12:\n      mload(0x40)\n      tag_14\n      swap2\n      swap1\n      tag_15\n      jump\t// in\n    tag_14:\n      mload(0x40)\n      dup1\n      swap2\n      sub\n      swap1\n      return\n        /* \"second.sol\":368:434  function activate() public {... */\n    tag_7:\n        /* \"second.sol\":414:426  State.Active */\n      0x02\n        /* \"second.sol\":406:411  state */\n      0x00\n      dup1\n        /* \"second.sol\":406:426  state = State.Active */\n      0x0100\n      exp\n      dup2\n      sload\n      dup2\n      0xff\n      mul\n      not\n      and\n      swap1\n      dup4\n      0x02\n      dup2\n      gt\n      iszero\n      tag_17\n      jumpi\n      tag_18\n      tag_19\n      jump\t// in\n    tag_18:\n    tag_17:\n      mul\n      or\n      swap1\n      sstore\n      pop\n        /* \"second.sol\":368:434  function activate() public {... */\n      jump\t// out\n        /* \"second.sol\":442:540  function isActive() public view returns(bool)... */\n    tag_9:\n        /* \"second.sol\":482:486  bool */\n      0x00\n        /* \"second.sol\":520:532  State.Active */\n      0x02\n        /* \"second.sol\":511:532  state == State.Active */\n      dup1\n      dup2\n      gt\n      iszero\n      tag_21\n      jumpi\n      tag_22\n      tag_19\n      jump\t// in\n    tag_22:\n    tag_21:\n        /* \"second.sol\":511:516  state */\n      0x00\n      dup1\n      sload\n      swap1\n      0x0100\n      exp\n      swap1\n      div\n      0xff\n      and\n        /* \"second.sol\":511:532  state == State.Active */\n      0x02\n      dup2\n      gt\n      iszero\n      tag_23\n      jumpi\n      tag_24\n      tag_19\n      jump\t// in\n    tag_24:\n    tag_23:\n      eq\n        /* \"second.sol\":504:532  return state == State.Active */\n      swap1\n      pop\n        /* \"second.sol\":442:540  function isActive() public view returns(bool)... */\n      swap1\n      jump\t// out\n        /* \"second.sol\":279:297  State public state */\n    tag_13:\n      0x00\n      dup1\n      sload\n      swap1\n      0x0100\n      exp\n      swap1\n      div\n      0xff\n      and\n      dup2\n      jump\t// out\n        /* \"#utility.yul\":7:97   */\n    tag_25:\n        /* \"#utility.yul\":41:48   */\n      0x00\n        /* \"#utility.yul\":84:89   */\n      dup2\n        /* \"#utility.yul\":77:90   */\n      iszero\n        /* \"#utility.yul\":70:91   */\n      iszero\n        /* \"#utility.yul\":59:91   */\n      swap1\n      pop\n        /* \"#utility.yul\":7:97   */\n      swap2\n      swap1\n      pop\n      jump\t// out\n        /* \"#utility.yul\":103:212   */\n    tag_26:\n        /* \"#utility.yul\":184:205   */\n      tag_34\n        /* \"#utility.yul\":199:204   */\n      dup2\n        /* \"#utility.yul\":184:205   */\n      tag_25\n      jump\t// in\n    tag_34:\n        /* \"#utility.yul\":179:182   */\n      dup3\n        /* \"#utility.yul\":172:206   */\n      mstore\n        /* \"#utility.yul\":103:212   */\n      pop\n      pop\n      jump\t// out\n        /* \"#utility.yul\":218:428   */\n    tag_11:\n        /* \"#utility.yul\":305:309   */\n      0x00\n        /* \"#utility.yul\":343:345   */\n      0x20\n        /* \"#utility.yul\":332:341   */\n      dup3\n        /* \"#utility.yul\":328:346   */\n      add\n        /* \"#utility.yul\":320:346   */\n      swap1\n      pop\n        /* \"#utility.yul\":356:421   */\n      tag_36\n        /* \"#utility.yul\":418:419   */\n      0x00\n        /* \"#utility.yul\":407:416   */\n      dup4\n        /* \"#utility.yul\":403:420   */\n      add\n        /* \"#utility.yul\":394:400   */\n      dup5\n        /* \"#utility.yul\":356:421   */\n      tag_26\n      jump\t// in\n    tag_36:\n        /* \"#utility.yul\":218:428   */\n      swap3\n      swap2\n      pop\n      pop\n      jump\t// out\n        /* \"#utility.yul\":434:614   */\n    tag_19:\n        /* \"#utility.yul\":482:559   */\n      0x4e487b7100000000000000000000000000000000000000000000000000000000\n        /* \"#utility.yul\":479:480   */\n      0x00\n        /* \"#utility.yul\":472:560   */\n      mstore\n        /* \"#utility.yul\":579:583   */\n      0x21\n        /* \"#utility.yul\":576:577   */\n      0x04\n        /* \"#utility.yul\":569:584   */\n      mstore\n        /* \"#utility.yul\":603:607   */\n      0x24\n        /* \"#utility.yul\":600:601   */\n      0x00\n        /* \"#utility.yul\":593:608   */\n      revert\n        /* \"#utility.yul\":620:732   */\n    tag_27:\n        /* \"#utility.yul\":700:701   */\n      0x03\n        /* \"#utility.yul\":693:698   */\n      dup2\n        /* \"#utility.yul\":690:702   */\n      lt\n        /* \"#utility.yul\":680:726   */\n      tag_39\n      jumpi\n        /* \"#utility.yul\":706:724   */\n      tag_40\n      tag_19\n      jump\t// in\n    tag_40:\n        /* \"#utility.yul\":680:726   */\n    tag_39:\n        /* \"#utility.yul\":620:732   */\n      pop\n      jump\t// out\n        /* \"#utility.yul\":738:863   */\n    tag_28:\n        /* \"#utility.yul\":782:789   */\n      0x00\n        /* \"#utility.yul\":811:816   */\n      dup2\n        /* \"#utility.yul\":800:816   */\n      swap1\n      pop\n        /* \"#utility.yul\":817:857   */\n      tag_42\n        /* \"#utility.yul\":851:856   */\n      dup3\n        /* \"#utility.yul\":817:857   */\n      tag_27\n      jump\t// in\n    tag_42:\n        /* \"#utility.yul\":738:863   */\n      swap2\n      swap1\n      pop\n      jump\t// out\n        /* \"#utility.yul\":869:994   */\n    tag_29:\n        /* \"#utility.yul\":924:933   */\n      0x00\n        /* \"#utility.yul\":957:988   */\n      tag_44\n        /* \"#utility.yul\":982:987   */\n      dup3\n        /* \"#utility.yul\":957:988   */\n      tag_28\n      jump\t// in\n    tag_44:\n        /* \"#utility.yul\":944:988   */\n      swap1\n      pop\n        /* \"#utility.yul\":869:994   */\n      swap2\n      swap1\n      pop\n      jump\t// out\n        /* \"#utility.yul\":1000:1141   */\n    tag_30:\n        /* \"#utility.yul\":1092:1134   */\n      tag_46\n        /* \"#utility.yul\":1128:1133   */\n      dup2\n        /* \"#utility.yul\":1092:1134   */\n      tag_29\n      jump\t// in\n    tag_46:\n        /* \"#utility.yul\":1087:1090   */\n      dup3\n        /* \"#utility.yul\":1080:1135   */\n      mstore\n        /* \"#utility.yul\":1000:1141   */\n      pop\n      pop\n      jump\t// out\n        /* \"#utility.yul\":1147:1379   */\n    tag_15:\n        /* \"#utility.yul\":1245:1249   */\n      0x00\n        /* \"#utility.yul\":1283:1285   */\n      0x20\n        /* \"#utility.yul\":1272:1281   */\n      dup3\n        /* \"#utility.yul\":1268:1286   */\n      add\n        /* \"#utility.yul\":1260:1286   */\n      swap1\n      pop\n        /* \"#utility.yul\":1296:1372   */\n      tag_48\n        /* \"#utility.yul\":1369:1370   */\n      0x00\n        /* \"#utility.yul\":1358:1367   */\n      dup4\n        /* \"#utility.yul\":1354:1371   */\n      add\n        /* \"#utility.yul\":1345:1351   */\n      dup5\n        /* \"#utility.yul\":1296:1372   */\n      tag_30\n      jump\t// in\n    tag_48:\n        /* \"#utility.yul\":1147:1379   */\n      swap3\n      swap2\n      pop\n      pop\n      jump\t// out\n\n    auxdata: 0xa2646970667358221220a3d34bd913f6aa5aee96f9fab332724a297d960d0fbbbff0cbbeccea56b0875064736f6c63430008160033\n}\n",
				"bytecode": {
					"linkReferences": {},
					"object": "608060405234801561000f575f80fd5b505f805f6101000a81548160ff021916908360028111156100335761003261003d565b5b021790555061006a565b7f4e487b71000000000000000000000000000000000000000000000000000000005f52602160045260245ffd5b6101f2806100775f395ff3fe608060405234801561000f575f80fd5b506004361061003f575f3560e01c80630f15f4c01461004357806322f3e2d41461004d578063c19d93fb1461006b575b5f80fd5b61004b610089565b005b6100556100b4565b6040516100629190610117565b60405180910390f35b6100736100ed565b60405161008091906101a3565b60405180910390f35b60025f806101000a81548160ff021916908360028111156100ad576100ac610130565b5b0217905550565b5f6002808111156100c8576100c7610130565b5b5f8054906101000a900460ff1660028111156100e7576100e6610130565b5b14905090565b5f8054906101000a900460ff1681565b5f8115159050919050565b610111816100fd565b82525050565b5f60208201905061012a5f830184610108565b92915050565b7f4e487b71000000000000000000000000000000000000000000000000000000005f52602160045260245ffd5b6003811061016e5761016d610130565b5b50565b5f81905061017e8261015d565b919050565b5f61018d82610171565b9050919050565b61019d81610183565b82525050565b5f6020820190506101b65f830184610194565b9291505056fea2646970667358221220a3d34bd913f6aa5aee96f9fab332724a297d960d0fbbbff0cbbeccea56b0875064736f6c63430008160033",
					"opcodes": "PUSH1 0x80 PUSH1 0x40 MSTORE CALLVALUE DUP1 ISZERO PUSH2 0xF JUMPI PUSH0 DUP1 REVERT JUMPDEST POP PUSH0 DUP1 PUSH0 PUSH2 0x100 EXP DUP2 SLOAD DUP2 PUSH1 0xFF MUL NOT AND SWAP1 DUP4 PUSH1 0x2 DUP2 GT ISZERO PUSH2 0x33 JUMPI PUSH2 0x32 PUSH2 0x3D JUMP JUMPDEST JUMPDEST MUL OR SWAP1 SSTORE POP PUSH2 0x6A JUMP JUMPDEST PUSH32 0x4E487B7100000000000000000000000000000000000000000000000000000000 PUSH0 MSTORE PUSH1 0x21 PUSH1 0x4 MSTORE PUSH1 0x24 PUSH0 REVERT JUMPDEST PUSH2 0x1F2 DUP1 PUSH2 0x77 PUSH0 CODECOPY PUSH0 RETURN INVALID PUSH1 0x80 PUSH1 0x40 MSTORE CALLVALUE DUP1 ISZERO PUSH2 0xF JUMPI PUSH0 DUP1 REVERT JUMPDEST POP PUSH1 0x4 CALLDATASIZE LT PUSH2 0x3F JUMPI PUSH0 CALLDATALOAD PUSH1 0xE0 SHR DUP1 PUSH4 0xF15F4C0 EQ PUSH2 0x43 JUMPI DUP1 PUSH4 0x22F3E2D4 EQ PUSH2 0x4D JUMPI DUP1 PUSH4 0xC19D93FB EQ PUSH2 0x6B JUMPI JUMPDEST PUSH0 DUP1 REVERT JUMPDEST PUSH2 0x4B PUSH2 0x89 JUMP JUMPDEST STOP JUMPDEST PUSH2 0x55 PUSH2 0xB4 JUMP JUMPDEST PUSH1 0x40 MLOAD PUSH2 0x62 SWAP2 SWAP1 PUSH2 0x117 JUMP JUMPDEST PUSH1 0x40 MLOAD DUP1 SWAP2 SUB SWAP1 RETURN JUMPDEST PUSH2 0x73 PUSH2 0xED JUMP JUMPDEST PUSH1 0x40 MLOAD PUSH2 0x80 SWAP2 SWAP1 PUSH2 0x1A3 JUMP JUMPDEST PUSH1 0x40 MLOAD DUP1 SWAP2 SUB SWAP1 RETURN JUMPDEST PUSH1 0x2 PUSH0 DUP1 PUSH2 0x100 EXP DUP2 SLOAD DUP2 PUSH1 0xFF MUL NOT AND SWAP1 DUP4 PUSH1 0x2 DUP2 GT ISZERO PUSH2 0xAD JUMPI PUSH2 0xAC PUSH2 0x130 JUMP JUMPDEST JUMPDEST MUL OR SWAP1 SSTORE POP JUMP JUMPDEST PUSH0 PUSH1 0x2 DUP1 DUP2 GT ISZERO PUSH2 0xC8 JUMPI PUSH2 0xC7 PUSH2 0x130 JUMP JUMPDEST JUMPDEST PUSH0 DUP1 SLOAD SWAP1 PUSH2 0x100 EXP SWAP1 DIV PUSH1 0xFF AND PUSH1 0x2 DUP2 GT ISZERO PUSH2 0xE7 JUMPI PUSH2 0xE6 PUSH2 0x130 JUMP JUMPDEST JUMPDEST EQ SWAP1 POP SWAP1 JUMP JUMPDEST PUSH0 DUP1 SLOAD SWAP1 PUSH2 0x100 EXP SWAP1 DIV PUSH1 0xFF AND DUP2 JUMP JUMPDEST PUSH0 DUP2 ISZERO ISZERO SWAP1 POP SWAP2 SWAP1 POP JUMP JUMPDEST PUSH2 0x111 DUP2 PUSH2 0xFD JUMP JUMPDEST DUP3 MSTORE POP POP JUMP JUMPDEST PUSH0 PUSH1 0x20 DUP3 ADD SWAP1 POP PUSH2 0x12A PUSH0 DUP4 ADD DUP5 PUSH2 0x108 JUMP JUMPDEST SWAP3 SWAP2 POP POP JUMP JUMPDEST PUSH32 0x4E487B7100000000000000000000000000000000000000000000000000000000 PUSH0 MSTORE PUSH1 0x21 PUSH1 0x4 MSTORE PUSH1 0x24 PUSH0 REVERT JUMPDEST PUSH1 0x3 DUP2 LT PUSH2 0x16E JUMPI PUSH2 0x16D PUSH2 0x130 JUMP JUMPDEST JUMPDEST POP JUMP JUMPDEST PUSH0 DUP2 SWAP1 POP PUSH2 0x17E DUP3 PUSH2 0x15D JUMP JUMPDEST SWAP2 SWAP1 POP JUMP JUMPDEST PUSH0 PUSH2 0x18D DUP3 PUSH2 0x171 JUMP JUMPDEST SWAP1 POP SWAP2 SWAP1 POP JUMP JUMPDEST PUSH2 0x19D DUP2 PUSH2 0x183 JUMP JUMPDEST DUP3 MSTORE POP POP JUMP JUMPDEST PUSH0 PUSH1 0x20 DUP3 ADD SWAP1 POP PUSH2 0x1B6 PUSH0 DUP4 ADD DUP5 PUSH2 0x194 JUMP JUMPDEST SWAP3 SWAP2 POP POP JUMP INVALID LOG2 PUSH5 0x6970667358 0x22 SLT KECCAK256 LOG3 0xD3 0x4B 0xD9 SGT 0xF6 0xAA GAS 0xEE SWAP7 0xF9 STATICCALL 0xB3 ORIGIN PUSH19 0x4A297D960D0FBBBFF0CBBECCEA56B087506473 PUSH16 0x6C634300081600330000000000000000 "
				},
				"gasEstimates": {
					"creation": {
						"codeDepositCost": "99600",
						"executionCost": "24442",
						"totalCost": "124042"
					},
					"external": {
						"activate()": "24407",
						"isActive()": "2528",
						"state()": "2573"
					}
				},
				"methodIdentifiers": {
					"activate()": "0f15f4c0",
					"isActive()": "22f3e2d4",
					"state()": "c19d93fb"
				}
			},
			"storageLayout": {
				"storage": [
					{
						"astId": 9,
						"contract": "second.sol:My2Contract",
						"label": "state",
						"offset": 0,
						"slot": "0",
						"type": "t_enum(State)6"
					}
				],
				"types": {
					"t_enum(State)6": {
						"encoding": "inplace",
						"label": "enum My2Contract.State",
						"numberOfBytes": "1"
					}
				}
			},
			"userdoc": {
				"kind": "user",
				"methods": {},
				"version": 1
			}
		}
	}
}