{
	"data": {
		"bytecode": {
			"linkReferences": {},
			"object": "608060405234801561000f575f80fd5b506108c98061001d5f395ff3fe608060405234801561000f575f80fd5b506004361061003f575f3560e01c80637b254029146100435780639e7a13ad1461005f578063adbbff0914610090575b5f80fd5b61005d600480360381019061005891906103bf565b6100ae565b005b61007960048036038101906100749190610468565b610132565b60405161008792919061050d565b60405180910390f35b61009861026c565b6040516100a59190610551565b60405180910390f35b5f604051806040016040528084815260200183815250908060018154018082558091505060019003905f5260205f2090600202015f909190919091505f820151815f0190816100fd9190610764565b5060208201518160010190816101139190610764565b5050506001805f8282546101279190610860565b925050819055505050565b5f8181548110610140575f80fd5b905f5260205f2090600202015f91509050805f01805461015f90610597565b80601f016020809104026020016040519081016040528092919081815260200182805461018b90610597565b80156101d65780601f106101ad576101008083540402835291602001916101d6565b820191905f5260205f20905b8154815290600101906020018083116101b957829003601f168201915b5050505050908060010180546101eb90610597565b80601f016020809104026020016040519081016040528092919081815260200182805461021790610597565b80156102625780601f1061023957610100808354040283529160200191610262565b820191905f5260205f20905b81548152906001019060200180831161024557829003601f168201915b5050505050905082565b60015481565b5f604051905090565b5f80fd5b5f80fd5b5f80fd5b5f80fd5b5f601f19601f8301169050919050565b7f4e487b71000000000000000000000000000000000000000000000000000000005f52604160045260245ffd5b6102d18261028b565b810181811067ffffffffffffffff821117156102f0576102ef61029b565b5b80604052505050565b5f610302610272565b905061030e82826102c8565b919050565b5f67ffffffffffffffff82111561032d5761032c61029b565b5b6103368261028b565b9050602081019050919050565b828183375f83830152505050565b5f61036361035e84610313565b6102f9565b90508281526020810184848401111561037f5761037e610287565b5b61038a848285610343565b509392505050565b5f82601f8301126103a6576103a5610283565b5b81356103b6848260208601610351565b91505092915050565b5f80604083850312156103d5576103d461027b565b5b5f83013567ffffffffffffffff8111156103f2576103f161027f565b5b6103fe85828601610392565b925050602083013567ffffffffffffffff81111561041f5761041e61027f565b5b61042b85828601610392565b9150509250929050565b5f819050919050565b61044781610435565b8114610451575f80fd5b50565b5f813590506104628161043e565b92915050565b5f6020828403121561047d5761047c61027b565b5b5f61048a84828501610454565b91505092915050565b5f81519050919050565b5f82825260208201905092915050565b5f5b838110156104ca5780820151818401526020810190506104af565b5f8484015250505050565b5f6104df82610493565b6104e9818561049d565b93506104f98185602086016104ad565b6105028161028b565b840191505092915050565b5f6040820190508181035f83015261052581856104d5565b9050818103602083015261053981846104d5565b90509392505050565b61054b81610435565b82525050565b5f6020820190506105645f830184610542565b92915050565b7f4e487b71000000000000000000000000000000000000000000000000000000005f52602260045260245ffd5b5f60028204905060018216806105ae57607f821691505b6020821081036105c1576105c061056a565b5b50919050565b5f819050815f5260205f209050919050565b5f6020601f8301049050919050565b5f82821b905092915050565b5f600883026106237fffffffffffffffffffffffffffffffffffffffffffffffffffffffffffffffff826105e8565b61062d86836105e8565b95508019841693508086168417925050509392505050565b5f819050919050565b5f61066861066361065e84610435565b610645565b610435565b9050919050565b5f819050919050565b6106818361064e565b61069561068d8261066f565b8484546105f4565b825550505050565b5f90565b6106a961069d565b6106b4818484610678565b505050565b5b818110156106d7576106cc5f826106a1565b6001810190506106ba565b5050565b601f82111561071c576106ed816105c7565b6106f6846105d9565b81016020851015610705578190505b610719610711856105d9565b8301826106b9565b50505b505050565b5f82821c905092915050565b5f61073c5f1984600802610721565b1980831691505092915050565b5f610754838361072d565b9150826002028217905092915050565b61076d82610493565b67ffffffffffffffff8111156107865761078561029b565b5b6107908254610597565b61079b8282856106db565b5f60209050601f8311600181146107cc575f84156107ba578287015190505b6107c48582610749565b86555061082b565b601f1984166107da866105c7565b5f5b82811015610801578489015182556001820191506020850194506020810190506107dc565b8683101561081e578489015161081a601f89168261072d565b8355505b6001600288020188555050505b505050505050565b7f4e487b71000000000000000000000000000000000000000000000000000000005f52601160045260245ffd5b5f61086a82610435565b915061087583610435565b925082820190508082111561088d5761088c610833565b5b9291505056fea264697066735822122034ebe59de795a3b7b360613fabee12515e66f3475fe46b64dd9ab5b5f619b98b64736f6c63430008160033",
			"opcodes": "PUSH1 0x80 PUSH1 0x40 MSTORE CALLVALUE DUP1 ISZERO PUSH2 0xF JUMPI PUSH0 DUP1 REVERT JUMPDEST POP PUSH2 0x8C9 DUP1 PUSH2 0x1D PUSH0 CODECOPY PUSH0 RETURN INVALID PUSH1 0x80 PUSH1 0x40 MSTORE CALLVALUE DUP1 ISZERO PUSH2 0xF JUMPI PUSH0 DUP1 REVERT JUMPDEST POP PUSH1 0x4 CALLDATASIZE LT PUSH2 0x3F JUMPI PUSH0 CALLDATALOAD PUSH1 0xE0 SHR DUP1 PUSH4 0x7B254029 EQ PUSH2 0x43 JUMPI DUP1 PUSH4 0x9E7A13AD EQ PUSH2 0x5F JUMPI DUP1 PUSH4 0xADBBFF09 EQ PUSH2 0x90 JUMPI JUMPDEST PUSH0 DUP1 REVERT JUMPDEST PUSH2 0x5D PUSH1 0x4 DUP1 CALLDATASIZE SUB DUP2 ADD SWAP1 PUSH2 0x58 SWAP2 SWAP1 PUSH2 0x3BF JUMP JUMPDEST PUSH2 0xAE JUMP JUMPDEST STOP JUMPDEST PUSH2 0x79 PUSH1 0x4 DUP1 CALLDATASIZE SUB DUP2 ADD SWAP1 PUSH2 0x74 SWAP2 SWAP1 PUSH2 0x468 JUMP JUMPDEST PUSH2 0x132 JUMP JUMPDEST PUSH1 0x40 MLOAD PUSH2 0x87 SWAP3 SWAP2 SWAP1 PUSH2 0x50D JUMP JUMPDEST PUSH1 0x40 MLOAD DUP1 SWAP2 SUB SWAP1 RETURN JUMPDEST PUSH2 0x98 PUSH2 0x26C JUMP JUMPDEST PUSH1 0x40 MLOAD PUSH2 0xA5 SWAP2 SWAP1 PUSH2 0x551 JUMP JUMPDEST PUSH1 0x40 MLOAD DUP1 SWAP2 SUB SWAP1 RETURN JUMPDEST PUSH0 PUSH1 0x40 MLOAD DUP1 PUSH1 0x40 ADD PUSH1 0x40 MSTORE DUP1 DUP5 DUP2 MSTORE PUSH1 0x20 ADD DUP4 DUP2 MSTORE POP SWAP1 DUP1 PUSH1 0x1 DUP2 SLOAD ADD DUP1 DUP3 SSTORE DUP1 SWAP2 POP POP PUSH1 0x1 SWAP1 SUB SWAP1 PUSH0 MSTORE PUSH1 0x20 PUSH0 KECCAK256 SWAP1 PUSH1 0x2 MUL ADD PUSH0 SWAP1 SWAP2 SWAP1 SWAP2 SWAP1 SWAP2 POP PUSH0 DUP3 ADD MLOAD DUP2 PUSH0 ADD SWAP1 DUP2 PUSH2 0xFD SWAP2 SWAP1 PUSH2 0x764 JUMP JUMPDEST POP PUSH1 0x20 DUP3 ADD MLOAD DUP2 PUSH1 0x1 ADD SWAP1 DUP2 PUSH2 0x113 SWAP2 SWAP1 PUSH2 0x764 JUMP JUMPDEST POP POP POP PUSH1 0x1 DUP1 PUSH0 DUP3 DUP3 SLOAD PUSH2 0x127 SWAP2 SWAP1 PUSH2 0x860 JUMP JUMPDEST SWAP3 POP POP DUP2 SWAP1 SSTORE POP POP POP JUMP JUMPDEST PUSH0 DUP2 DUP2 SLOAD DUP2 LT PUSH2 0x140 JUMPI PUSH0 DUP1 REVERT JUMPDEST SWAP1 PUSH0 MSTORE PUSH1 0x20 PUSH0 KECCAK256 SWAP1 PUSH1 0x2 MUL ADD PUSH0 SWAP2 POP SWAP1 POP DUP1 PUSH0 ADD DUP1 SLOAD PUSH2 0x15F SWAP1 PUSH2 0x597 JUMP JUMPDEST DUP1 PUSH1 0x1F ADD PUSH1 0x20 DUP1 SWAP2 DIV MUL PUSH1 0x20 ADD PUSH1 0x40 MLOAD SWAP1 DUP2 ADD PUSH1 0x40 MSTORE DUP1 SWAP3 SWAP2 SWAP1 DUP2 DUP2 MSTORE PUSH1 0x20 ADD DUP3 DUP1 SLOAD PUSH2 0x18B SWAP1 PUSH2 0x597 JUMP JUMPDEST DUP1 ISZERO PUSH2 0x1D6 JUMPI DUP1 PUSH1 0x1F LT PUSH2 0x1AD JUMPI PUSH2 0x100 DUP1 DUP4 SLOAD DIV MUL DUP4 MSTORE SWAP2 PUSH1 0x20 ADD SWAP2 PUSH2 0x1D6 JUMP JUMPDEST DUP3 ADD SWAP2 SWAP1 PUSH0 MSTORE PUSH1 0x20 PUSH0 KECCAK256 SWAP1 JUMPDEST DUP2 SLOAD DUP2 MSTORE SWAP1 PUSH1 0x1 ADD SWAP1 PUSH1 0x20 ADD DUP1 DUP4 GT PUSH2 0x1B9 JUMPI DUP3 SWAP1 SUB PUSH1 0x1F AND DUP3 ADD SWAP2 JUMPDEST POP POP POP POP POP SWAP1 DUP1 PUSH1 0x1 ADD DUP1 SLOAD PUSH2 0x1EB SWAP1 PUSH2 0x597 JUMP JUMPDEST DUP1 PUSH1 0x1F ADD PUSH1 0x20 DUP1 SWAP2 DIV MUL PUSH1 0x20 ADD PUSH1 0x40 MLOAD SWAP1 DUP2 ADD PUSH1 0x40 MSTORE DUP1 SWAP3 SWAP2 SWAP1 DUP2 DUP2 MSTORE PUSH1 0x20 ADD DUP3 DUP1 SLOAD PUSH2 0x217 SWAP1 PUSH2 0x597 JUMP JUMPDEST DUP1 ISZERO PUSH2 0x262 JUMPI DUP1 PUSH1 0x1F LT PUSH2 0x239 JUMPI PUSH2 0x100 DUP1 DUP4 SLOAD DIV MUL DUP4 MSTORE SWAP2 PUSH1 0x20 ADD SWAP2 PUSH2 0x262 JUMP JUMPDEST DUP3 ADD SWAP2 SWAP1 PUSH0 MSTORE PUSH1 0x20 PUSH0 KECCAK256 SWAP1 JUMPDEST DUP2 SLOAD DUP2 MSTORE SWAP1 PUSH1 0x1 ADD SWAP1 PUSH1 0x20 ADD DUP1 DUP4 GT PUSH2 0x245 JUMPI DUP3 SWAP1 SUB PUSH1 0x1F AND DUP3 ADD SWAP2 JUMPDEST POP POP POP POP POP SWAP1 POP DUP3 JUMP JUMPDEST PUSH1 0x1 SLOAD DUP2 JUMP JUMPDEST PUSH0 PUSH1 0x40 MLOAD SWAP1 POP SWAP1 JUMP JUMPDEST PUSH0 DUP1 REVERT JUMPDEST PUSH0 DUP1 REVERT JUMPDEST PUSH0 DUP1 REVERT JUMPDEST PUSH0 DUP1 REVERT JUMPDEST PUSH0 PUSH1 0x1F NOT PUSH1 0x1F DUP4 ADD AND SWAP1 POP SWAP2 SWAP1 POP JUMP JUMPDEST PUSH32 0x4E487B7100000000000000000000000000000000000000000000000000000000 PUSH0 MSTORE PUSH1 0x41 PUSH1 0x4 MSTORE PUSH1 0x24 PUSH0 REVERT JUMPDEST PUSH2 0x2D1 DUP3 PUSH2 0x28B JUMP JUMPDEST DUP2 ADD DUP2 DUP2 LT PUSH8 0xFFFFFFFFFFFFFFFF DUP3 GT OR ISZERO PUSH2 0x2F0 JUMPI PUSH2 0x2EF PUSH2 0x29B JUMP JUMPDEST JUMPDEST DUP1 PUSH1 0x40 MSTORE POP POP POP JUMP JUMPDEST PUSH0 PUSH2 0x302 PUSH2 0x272 JUMP JUMPDEST SWAP1 POP PUSH2 0x30E DUP3 DUP3 PUSH2 0x2C8 JUMP JUMPDEST SWAP2 SWAP1 POP JUMP JUMPDEST PUSH0 PUSH8 0xFFFFFFFFFFFFFFFF DUP3 GT ISZERO PUSH2 0x32D JUMPI PUSH2 0x32C PUSH2 0x29B JUMP JUMPDEST JUMPDEST PUSH2 0x336 DUP3 PUSH2 0x28B JUMP JUMPDEST SWAP1 POP PUSH1 0x20 DUP2 ADD SWAP1 POP SWAP2 SWAP1 POP JUMP JUMPDEST DUP3 DUP2 DUP4 CALLDATACOPY PUSH0 DUP4 DUP4 ADD MSTORE POP POP POP JUMP JUMPDEST PUSH0 PUSH2 0x363 PUSH2 0x35E DUP5 PUSH2 0x313 JUMP JUMPDEST PUSH2 0x2F9 JUMP JUMPDEST SWAP1 POP DUP3 DUP2 MSTORE PUSH1 0x20 DUP2 ADD DUP5 DUP5 DUP5 ADD GT ISZERO PUSH2 0x37F JUMPI PUSH2 0x37E PUSH2 0x287 JUMP JUMPDEST JUMPDEST PUSH2 0x38A DUP5 DUP3 DUP6 PUSH2 0x343 JUMP JUMPDEST POP SWAP4 SWAP3 POP POP POP JUMP JUMPDEST PUSH0 DUP3 PUSH1 0x1F DUP4 ADD SLT PUSH2 0x3A6 JUMPI PUSH2 0x3A5 PUSH2 0x283 JUMP JUMPDEST JUMPDEST DUP2 CALLDATALOAD PUSH2 0x3B6 DUP5 DUP3 PUSH1 0x20 DUP7 ADD PUSH2 0x351 JUMP JUMPDEST SWAP2 POP POP SWAP3 SWAP2 POP POP JUMP JUMPDEST PUSH0 DUP1 PUSH1 0x40 DUP4 DUP6 SUB SLT ISZERO PUSH2 0x3D5 JUMPI PUSH2 0x3D4 PUSH2 0x27B JUMP JUMPDEST JUMPDEST PUSH0 DUP4 ADD CALLDATALOAD PUSH8 0xFFFFFFFFFFFFFFFF DUP2 GT ISZERO PUSH2 0x3F2 JUMPI PUSH2 0x3F1 PUSH2 0x27F JUMP JUMPDEST JUMPDEST PUSH2 0x3FE DUP6 DUP3 DUP7 ADD PUSH2 0x392 JUMP JUMPDEST SWAP3 POP POP PUSH1 0x20 DUP4 ADD CALLDATALOAD PUSH8 0xFFFFFFFFFFFFFFFF DUP2 GT ISZERO PUSH2 0x41F JUMPI PUSH2 0x41E PUSH2 0x27F JUMP JUMPDEST JUMPDEST PUSH2 0x42B DUP6 DUP3 DUP7 ADD PUSH2 0x392 JUMP JUMPDEST SWAP2 POP POP SWAP3 POP SWAP3 SWAP1 POP JUMP JUMPDEST PUSH0 DUP2 SWAP1 POP SWAP2 SWAP1 POP JUMP JUMPDEST PUSH2 0x447 DUP2 PUSH2 0x435 JUMP JUMPDEST DUP2 EQ PUSH2 0x451 JUMPI PUSH0 DUP1 REVERT JUMPDEST POP JUMP JUMPDEST PUSH0 DUP2 CALLDATALOAD SWAP1 POP PUSH2 0x462 DUP2 PUSH2 0x43E JUMP JUMPDEST SWAP3 SWAP2 POP POP JUMP JUMPDEST PUSH0 PUSH1 0x20 DUP3 DUP5 SUB SLT ISZERO PUSH2 0x47D JUMPI PUSH2 0x47C PUSH2 0x27B JUMP JUMPDEST JUMPDEST PUSH0 PUSH2 0x48A DUP5 DUP3 DUP6 ADD PUSH2 0x454 JUMP JUMPDEST SWAP2 POP POP SWAP3 SWAP2 POP POP JUMP JUMPDEST PUSH0 DUP2 MLOAD SWAP1 POP SWAP2 SWAP1 POP JUMP JUMPDEST PUSH0 DUP3 DUP3 MSTORE PUSH1 0x20 DUP3 ADD SWAP1 POP SWAP3 SWAP2 POP POP JUMP JUMPDEST PUSH0 JUMPDEST DUP4 DUP2 LT ISZERO PUSH2 0x4CA JUMPI DUP1 DUP3 ADD MLOAD DUP2 DUP5 ADD MSTORE PUSH1 0x20 DUP2 ADD SWAP1 POP PUSH2 0x4AF JUMP JUMPDEST PUSH0 DUP5 DUP5 ADD MSTORE POP POP POP POP JUMP JUMPDEST PUSH0 PUSH2 0x4DF DUP3 PUSH2 0x493 JUMP JUMPDEST PUSH2 0x4E9 DUP2 DUP6 PUSH2 0x49D JUMP JUMPDEST SWAP4 POP PUSH2 0x4F9 DUP2 DUP6 PUSH1 0x20 DUP7 ADD PUSH2 0x4AD JUMP JUMPDEST PUSH2 0x502 DUP2 PUSH2 0x28B JUMP JUMPDEST DUP5 ADD SWAP2 POP POP SWAP3 SWAP2 POP POP JUMP JUMPDEST PUSH0 PUSH1 0x40 DUP3 ADD SWAP1 POP DUP2 DUP2 SUB PUSH0 DUP4 ADD MSTORE PUSH2 0x525 DUP2 DUP6 PUSH2 0x4D5 JUMP JUMPDEST SWAP1 POP DUP2 DUP2 SUB PUSH1 0x20 DUP4 ADD MSTORE PUSH2 0x539 DUP2 DUP5 PUSH2 0x4D5 JUMP JUMPDEST SWAP1 POP SWAP4 SWAP3 POP POP POP JUMP JUMPDEST PUSH2 0x54B DUP2 PUSH2 0x435 JUMP JUMPDEST DUP3 MSTORE POP POP JUMP JUMPDEST PUSH0 PUSH1 0x20 DUP3 ADD SWAP1 POP PUSH2 0x564 PUSH0 DUP4 ADD DUP5 PUSH2 0x542 JUMP JUMPDEST SWAP3 SWAP2 POP POP JUMP JUMPDEST PUSH32 0x4E487B7100000000000000000000000000000000000000000000000000000000 PUSH0 MSTORE PUSH1 0x22 PUSH1 0x4 MSTORE PUSH1 0x24 PUSH0 REVERT JUMPDEST PUSH0 PUSH1 0x2 DUP3 DIV SWAP1 POP PUSH1 0x1 DUP3 AND DUP1 PUSH2 0x5AE JUMPI PUSH1 0x7F DUP3 AND SWAP2 POP JUMPDEST PUSH1 0x20 DUP3 LT DUP2 SUB PUSH2 0x5C1 JUMPI PUSH2 0x5C0 PUSH2 0x56A JUMP JUMPDEST JUMPDEST POP SWAP2 SWAP1 POP JUMP JUMPDEST PUSH0 DUP2 SWAP1 POP DUP2 PUSH0 MSTORE PUSH1 0x20 PUSH0 KECCAK256 SWAP1 POP SWAP2 SWAP1 POP JUMP JUMPDEST PUSH0 PUSH1 0x20 PUSH1 0x1F DUP4 ADD DIV SWAP1 POP SWAP2 SWAP1 POP JUMP JUMPDEST PUSH0 DUP3 DUP3 SHL SWAP1 POP SWAP3 SWAP2 POP POP JUMP JUMPDEST PUSH0 PUSH1 0x8 DUP4 MUL PUSH2 0x623 PUSH32 0xFFFFFFFFFFFFFFFFFFFFFFFFFFFFFFFFFFFFFFFFFFFFFFFFFFFFFFFFFFFFFFFF DUP3 PUSH2 0x5E8 JUMP JUMPDEST PUSH2 0x62D DUP7 DUP4 PUSH2 0x5E8 JUMP JUMPDEST SWAP6 POP DUP1 NOT DUP5 AND SWAP4 POP DUP1 DUP7 AND DUP5 OR SWAP3 POP POP POP SWAP4 SWAP3 POP POP POP JUMP JUMPDEST PUSH0 DUP2 SWAP1 POP SWAP2 SWAP1 POP JUMP JUMPDEST PUSH0 PUSH2 0x668 PUSH2 0x663 PUSH2 0x65E DUP5 PUSH2 0x435 JUMP JUMPDEST PUSH2 0x645 JUMP JUMPDEST PUSH2 0x435 JUMP JUMPDEST SWAP1 POP SWAP2 SWAP1 POP JUMP JUMPDEST PUSH0 DUP2 SWAP1 POP SWAP2 SWAP1 POP JUMP JUMPDEST PUSH2 0x681 DUP4 PUSH2 0x64E JUMP JUMPDEST PUSH2 0x695 PUSH2 0x68D DUP3 PUSH2 0x66F JUMP JUMPDEST DUP5 DUP5 SLOAD PUSH2 0x5F4 JUMP JUMPDEST DUP3 SSTORE POP POP POP POP JUMP JUMPDEST PUSH0 SWAP1 JUMP JUMPDEST PUSH2 0x6A9 PUSH2 0x69D JUMP JUMPDEST PUSH2 0x6B4 DUP2 DUP5 DUP5 PUSH2 0x678 JUMP JUMPDEST POP POP POP JUMP JUMPDEST JUMPDEST DUP2 DUP2 LT ISZERO PUSH2 0x6D7 JUMPI PUSH2 0x6CC PUSH0 DUP3 PUSH2 0x6A1 JUMP JUMPDEST PUSH1 0x1 DUP2 ADD SWAP1 POP PUSH2 0x6BA JUMP JUMPDEST POP POP JUMP JUMPDEST PUSH1 0x1F DUP3 GT ISZERO PUSH2 0x71C JUMPI PUSH2 0x6ED DUP2 PUSH2 0x5C7 JUMP JUMPDEST PUSH2 0x6F6 DUP5 PUSH2 0x5D9 JUMP JUMPDEST DUP2 ADD PUSH1 0x20 DUP6 LT ISZERO PUSH2 0x705 JUMPI DUP2 SWAP1 POP JUMPDEST PUSH2 0x719 PUSH2 0x711 DUP6 PUSH2 0x5D9 JUMP JUMPDEST DUP4 ADD DUP3 PUSH2 0x6B9 JUMP JUMPDEST POP POP JUMPDEST POP POP POP JUMP JUMPDEST PUSH0 DUP3 DUP3 SHR SWAP1 POP SWAP3 SWAP2 POP POP JUMP JUMPDEST PUSH0 PUSH2 0x73C PUSH0 NOT DUP5 PUSH1 0x8 MUL PUSH2 0x721 JUMP JUMPDEST NOT DUP1 DUP4 AND SWAP2 POP POP SWAP3 SWAP2 POP POP JUMP JUMPDEST PUSH0 PUSH2 0x754 DUP4 DUP4 PUSH2 0x72D JUMP JUMPDEST SWAP2 POP DUP3 PUSH1 0x2 MUL DUP3 OR SWAP1 POP SWAP3 SWAP2 POP POP JUMP JUMPDEST PUSH2 0x76D DUP3 PUSH2 0x493 JUMP JUMPDEST PUSH8 0xFFFFFFFFFFFFFFFF DUP2 GT ISZERO PUSH2 0x786 JUMPI PUSH2 0x785 PUSH2 0x29B JUMP JUMPDEST JUMPDEST PUSH2 0x790 DUP3 SLOAD PUSH2 0x597 JUMP JUMPDEST PUSH2 0x79B DUP3 DUP3 DUP6 PUSH2 0x6DB JUMP JUMPDEST PUSH0 PUSH1 0x20 SWAP1 POP PUSH1 0x1F DUP4 GT PUSH1 0x1 DUP2 EQ PUSH2 0x7CC JUMPI PUSH0 DUP5 ISZERO PUSH2 0x7BA JUMPI DUP3 DUP8 ADD MLOAD SWAP1 POP JUMPDEST PUSH2 0x7C4 DUP6 DUP3 PUSH2 0x749 JUMP JUMPDEST DUP7 SSTORE POP PUSH2 0x82B JUMP JUMPDEST PUSH1 0x1F NOT DUP5 AND PUSH2 0x7DA DUP7 PUSH2 0x5C7 JUMP JUMPDEST PUSH0 JUMPDEST DUP3 DUP2 LT ISZERO PUSH2 0x801 JUMPI DUP5 DUP10 ADD MLOAD DUP3 SSTORE PUSH1 0x1 DUP3 ADD SWAP2 POP PUSH1 0x20 DUP6 ADD SWAP5 POP PUSH1 0x20 DUP2 ADD SWAP1 POP PUSH2 0x7DC JUMP JUMPDEST DUP7 DUP4 LT ISZERO PUSH2 0x81E JUMPI DUP5 DUP10 ADD MLOAD PUSH2 0x81A PUSH1 0x1F DUP10 AND DUP3 PUSH2 0x72D JUMP JUMPDEST DUP4 SSTORE POP JUMPDEST PUSH1 0x1 PUSH1 0x2 DUP9 MUL ADD DUP9 SSTORE POP POP POP JUMPDEST POP POP POP POP POP POP JUMP JUMPDEST PUSH32 0x4E487B7100000000000000000000000000000000000000000000000000000000 PUSH0 MSTORE PUSH1 0x11 PUSH1 0x4 MSTORE PUSH1 0x24 PUSH0 REVERT JUMPDEST PUSH0 PUSH2 0x86A DUP3 PUSH2 0x435 JUMP JUMPDEST SWAP2 POP PUSH2 0x875 DUP4 PUSH2 0x435 JUMP JUMPDEST SWAP3 POP DUP3 DUP3 ADD SWAP1 POP DUP1 DUP3 GT ISZERO PUSH2 0x88D JUMPI PUSH2 0x88C PUSH2 0x833 JUMP JUMPDEST JUMPDEST SWAP3 SWAP2 POP POP JUMP INVALID LOG2 PUSH5 0x6970667358 0x22 SLT KECCAK256 CALLVALUE 0xEB 0xE5 SWAP14 0xE7 SWAP6 LOG3 0xB7 0xB3 PUSH1 0x61 EXTCODEHASH 0xAB 0xEE SLT MLOAD 0x5E PUSH7 0xF3475FE46B64DD SWAP11 0xB5 0xB5 0xF6 NOT 0xB9 DUP12 PUSH5 0x736F6C6343 STOP ADDMOD AND STOP CALLER "
		},
		"gasEstimates": {
			"creation": {
				"codeDepositCost": "449800",
				"executionCost": "484",
				"totalCost": "450284"
			},
			"external": {
				"addperson(string,string)": "infinite",
				"people(uint256)": "infinite",
				"peoplecount()": "2447"
			}
		},
		"methodIdentifiers": {
			"addperson(string,string)": "7b254029",
			"people(uint256)": "9e7a13ad",
			"peoplecount()": "adbbff09"
		}
	},
	"abi": [
		{
			"inputs": [
				{
					"internalType": "string",
					"name": "_firstname",
					"type": "string"
				},
				{
					"internalType": "string",
					"name": "_lastname",
					"type": "string"
				}
			],
			"name": "addperson",
			"outputs": [],
			"stateMutability": "nonpayable",
			"type": "function"
		},
		{
			"inputs": [
				{
					"internalType": "uint256",
					"name": "",
					"type": "uint256"
				}
			],
			"name": "people",
			"outputs": [
				{
					"internalType": "string",
					"name": "_firstname",
					"type": "string"
				},
				{
					"internalType": "string",
					"name": "_lastname",
					"type": "string"
				}
			],
			"stateMutability": "view",
			"type": "function"
		},
		{
			"inputs": [],
			"name": "peoplecount",
			"outputs": [
				{
					"internalType": "uint256",
					"name": "",
					"type": "uint256"
				}
			],
			"stateMutability": "view",
			"type": "function"
		}
	]
}